:100000000C9462000C948A000C948A000C948A0070
:100010000C948A000C948A000C948A000C948A0038
:100020000C948A000C948A000C948A000C948A0028
:100030000C948A000C948A000C948A000C948A0018
:100040000C94BA020C948A000C948A000C948A00D6
:100050000C948A000C948A000C948A000C948A00F8
:100060000C948A000C948A000000000023002600F3
:10007000290000000000240027002A0000000000E2
:10008000250028002B0004040404040404040202D4
:100090000202020203030303030301020408102007
:1000A0004080010204081020010204081020000012
:1000B0000008000201000003040700000000000027
:1000C0000000FD0311241FBECFEFD8E0DEBFCDBF7F
:1000D00011E0A0E0B1E0E6E6F8E002C005900D9284
:1000E000A033B107D9F721E0A0E3B1E001C01D9230
:1000F000AD34B207E1F710E0C2E6D0E004C02197CA
:10010000FE010E942B04C136D107C9F70E940403E7
:100110000C9431040C940000AF92BF92CF92DF9206
:10012000EF92FF920F931F93CF93DF936C017B01AC
:100130008B01040F151FEB015E01AE18BF08C0173D
:10014000D10759F06991D601ED91FC910190F081B0
:10015000E02DC6010995892B79F7C501DF91CF9173
:100160001F910F91FF90EF90DF90CF90BF90AF90D5
:100170000895833081F028F4813099F08230A9F01D
:1001800008958730A9F08830C9F08430B1F48091A7
:1001900080008F7D03C0809180008F7780938000E6
:1001A000089584B58F7784BD089584B58F7DFBCF86
:1001B0008091B0008F778093B00008958091B00057
:1001C0008F7DF9CF1F93CF93DF93282F30E0F90174
:1001D000E255FF4F8491F901E656FF4FD491F901A2
:1001E000EA57FF4FC491CC23A9F0162F81110E942A
:1001F000B900EC2FF0E0EE0FFF1FE458FF4FA59180
:10020000B4918FB7F894EC91111108C0D095DE230A
:10021000DC938FBFDF91CF911F910895DE2BF8CF34
:10022000CF93DF9390E0FC01E656FF4F24918A576D
:100230009F4FFC0184918823D1F090E0880F991F93
:10024000FC01EE58FF4FA591B491FC01E458FF4F1B
:10025000C591D49161110EC09FB7F8948C91E22F93
:10026000E0958E238C932881E223E8839FBFDF9162
:10027000CF9108958FB7F894EC91E22BEC938FBF58
:10028000F6CF3FB7F8948091350190913601A09157
:100290003701B091380126B5A89B05C02F3F19F052
:1002A0000196A11DB11D3FBFBA2FA92F982F8827F6
:1002B000BC01CD01620F711D811D911D42E0660FD1
:1002C000771F881F991F4A95D1F708958F929F92A3
:1002D000AF92BF92CF92DF92EF92FF924B015C01FF
:1002E0000E9441016B017C010E9441016C197D0952
:1002F0008E099F09683E734081059105A8F321E0AE
:10030000821A9108A108B10888EEC80E83E0D81EB1
:10031000E11CF11C81149104A104B10429F7FF90A0
:10032000EF90DF90CF90BF90AF909F908F90089507
:10033000CF92DF92EF92FF920F931F93CF93DF93B1
:10034000EC0160E08A810E94E20060E088810E9406
:1003500010011F821E8261E08A810E94E2000E94D9
:1003600041016B017C01288139813327F901E25574
:10037000FF4F8491F901E656FF4F1491F901EA57B6
:10038000FF4F04910023D9F081110E94B900E02FA2
:10039000F0E0EE0FFF1FE859FF4FA591B491EC91EB
:1003A0001E2369F00E9441016C197D098E099F0985
:1003B0006536710581059105B0F280E001C081E0EC
:1003C000DF91CF911F910F91FF90EF90DF90CF9031
:1003D00008951F93CF93DF93EC01162F8E819F8199
:1003E000019741F0888121E030E03F832E8361E076
:1003F0000E941001612F8881DF91CF911F910C9491
:10040000E200EF92FF920F931F93CF93DF93EC01E3
:10041000F62E08E010E060E08A810E94E200EF2CF6
:10042000EE1CEE24EE1C6E2DCE010E94E90161E06F
:100430008A810E94E2006E2DCE010E94E901FF0C2C
:100440000150110941F7DF91CF911F910F91FF905A
:10045000EF900895EF92FF920F931F93CF93DF9346
:100460008C01F62EEC012C96FC01E48060E0CE01BC
:100470000E94E9016E2D660FCE010E940102CE019D
:100480000E949801F80163856F29CE010E94010244
:10049000CE010E94980160E0F80186850E94E2008A
:1004A00060E0CE010E94E90161E0F80186850E94CA
:1004B000E20061E0CE01DF91CF911F910F91FF909B
:1004C000EF900C94E901089590E080E008950F9377
:1004D0001F93CF938C01C62F0E942A026C2F646059
:1004E000C8010E942A026C2F6B7FC8010E942A0259
:1004F00083EC90E00197F1F7CF911F910F91089550
:100500000F931F93CF93DF938C01D62FC42F607F5F
:10051000642B0E94670280E1D89FB00111246C2BEC
:10052000C801DF91CF911F910F910C94670241E0B8
:100530000E94800290E080E008950F931F93CF9374
:10054000DF93FC0101900020E9F78F0101501109B0
:10055000EC01FE01C017D10740F4219641E0608113
:1005600089E391E00E948002F4CFDF91CF911F9147
:100570000F9108951F920F920FB60F9211242F938F
:100580003F938F939F93AF93BF938091310190914D
:100590003201A0913301B09134013091300123E058
:1005A000230F2D3758F50196A11DB11D2093300161
:1005B0008093310190933201A0933301B0933401C1
:1005C0008091350190913601A0913701B0913801A9
:1005D0000196A11DB11D8093350190933601A09322
:1005E0003701B0933801BF91AF919F918F913F91A7
:1005F0002F910F900FBE0F901F90189526E8230F94
:100600000296A11DB11DD2CFCF93DF93CDB7DEB738
:1006100028970FB6F894DEBF0FBECDBF789484B58F
:10062000826084BD84B5816084BD85B5826085BDEE
:1006300085B5816085BD80916E00816080936E007C
:10064000109281008091810082608093810080916E
:10065000810081608093810080918000816080931F
:1006600080008091B10084608093B1008091B000DF
:1006700081608093B00080917A00846080937A00DA
:1006800080917A00826080937A0080917A00816004
:1006900080937A0080917A00806880937A0010922B
:1006A000C10061E08DE00E94100110923E01809136
:1006B0004301823018F098E090933E01809341010D
:1006C00062E370E080E090E00E9466016091440186
:1006D00089E391E00E942A0268EE73E080E090E0F6
:1006E0000E94660160E389E391E00E9467020BE4E7
:1006F00016E4C8010197F1F760E389E391E00E94F5
:100700006702C8010197F1F760E389E391E00E9475
:10071000670283E592E00197F1F760E289E391E0F7
:100720000E94670260913E01606240E089E391E0CF
:100730000E94800284E080933F0140E06CE089E306
:1007400091E00E94800240E061E089E391E00E9434
:1007500080020BE31FE1C8010197F1F782E080936B
:10076000400140E066E089E391E00E94800240E0C1
:1007700062E089E391E00E948002C8010197F1F7ED
:1007800084E191E00E949D0288E0E0E0F1E0DE017A
:10079000119601900D928A95E1F7809141018111A6
:1007A0002AC08FEF90E0880F991F21E030E02C0FD6
:1007B0003D1F820F931FFC016081606840E089E368
:1007C00091E00E94800282E291E00E949D0200E09E
:1007D00010E040E06CE189E391E00E94800264E671
:1007E00070E080E090E00E9466010115110589F338
:1007F0000E940000EECF81E0D5CFCF93DF93C9E315
:10080000D1E01B821A828CE091E09983888380E595
:100810008C8380E1898782E08A871B8684E090E070
:100820009D878C8783E090E09F878E8761E00E94A0
:10083000100161E08C850E94100181E090E09B8BAB
:100840008A8B61E08E850E94E20061E08C85DF91F9
:10085000CF910C94E200EE0FFF1F0590F491E02D74
:060860000994F894FFCF9B
:1008660000004000140054000000000097028C00B5
:100876006402630248656C6C6F2C20776F726C643F
:100886002100504F4C494E4553204A4159410000E2
:00000001FF
