:100000000C945E000C9486000C9486000C94860080
:100010000C9486000C9486000C9486000C94860048
:100020000C9486000C9486000C9486000C94860038
:100030000C9486000C9486000C9486000C94860028
:100040000C94D7050C9486000C9447060C9421065A
:100050000C9486000C9486000C9486000C94860008
:100060000C9479060C9486000000000025002800FE
:100070002B000000000023002600290004040404D3
:100080000404040402020202020203030303030342
:10009000010204081020408001020408102001021F
:1000A00004081020000000080002010000030407FB
:1000B00000000000000000009807D50A11241FBEB0
:1000C000CFEFD8E0DEBFCDBF11E0A0E0B1E0EEE3BE
:1000D000FAE102C005900D92A23AB107D9F723E0E8
:1000E000A2EAB1E001C01D92A532B207E1F710E02B
:1000F000CDE5D0E004C02197FE010E94E20BCC3593
:10010000D107C9F70E94F2070C94120D0C9400005D
:10011000833081F028F4813099F08230A9F008957D
:100120008730A9F08830C9F08430B1F48091800024
:100130008F7D03C0809180008F7780938000089529
:1001400084B58F7784BD089584B58F7DFBCF809172
:10015000B0008F778093B00008958091B0008F7DBC
:10016000F9CFCF93DF93282F30E0F901EC55FF4F03
:100170008491F901E057FF4FD491F901E458FF4F02
:10018000C491CC23A1F081110E948800EC2FF0E0F3
:10019000EE0FFF1FEE58FF4FA591B491EC91ED23A8
:1001A00081E090E009F480E0DF91CF91089580E054
:1001B00090E0FACF1F93CF93DF93282F30E0F9011F
:1001C000EC55FF4F8491F901E057FF4FD491F901AD
:1001D000E458FF4FC491CC23A9F0162F81110E943F
:1001E0008800EC2FF0E0EE0FFF1FE859FF4FA591BC
:1001F000B4918FB7F894EC91111108C0D095DE231B
:10020000DC938FBFDF91CF911F910895DE2BF8CF44
:100210003FB7F8948091610290916202A0916302CD
:10022000B091640226B5A89B05C02F3F19F0019636
:10023000A11DB11D3FBFBA2FA92F982F8827BC0140
:10024000CD01620F711D811D911D42E0660F771F68
:10025000881F991F4A95D1F708958F929F92AF9268
:10026000BF92CF92DF92EF92FF924B015C010E940E
:1002700008016B017C010E9408016C197D098E093F
:100280009F09683E734081059105A8F321E0821A19
:100290009108A108B10888EEC80E83E0D81EE11CC1
:1002A000F11C81149104A104B10429F7FF90EF908F
:1002B000DF90CF90BF90AF909F908F90089508955A
:1002C0000895AF92BF92CF92DF92EF92FF920F9379
:1002D0001F93CF93DF936C017B018B01040F151FDC
:1002E000EB015E01AE18BF08C017D10759F0699144
:1002F000D601ED91FC910190F081E02DC6010995A8
:10030000892B79F7C501DF91CF911F910F91FF9054
:10031000EF90DF90CF90BF90AF900895FC01538D88
:10032000448D252F30E0842F90E0821B930B5417CF
:1003300010F0CF96089501970895FC01918D828D5C
:10034000981761F0A28DAE0FBF2FB11D5D968C91F5
:10035000928D9F5F9F73928F90E008958FEF9FEF34
:100360000895FC01918D828D981731F0828DE80FF0
:10037000F11D858D90E008958FEF9FEF0895FC01AA
:10038000918D228D892F90E0805C9F4F821B910977
:100390008F739927089585E692E00E94BF0121E0BE
:1003A000892B09F420E0822F089580E090E0892BCA
:1003B00029F00E94CB0181110C9400000895FC01EA
:1003C000A48DA80FB92FB11DA35ABF4F2C91848DB6
:1003D00090E001968F739927848FA689B7892C9313
:1003E000A089B1898C91837080648C93938D848D66
:1003F000981306C00288F389E02D80818F7D808369
:100400000895EF92FF920F931F93CF93DF93EC0128
:1004100081E0888F9B8D8C8D98131AC0E889F989AB
:10042000808185FF15C09FB7F894EE89FF896083AE
:10043000E889F98980818370806480839FBF81E02F
:1004400090E0DF91CF911F910F91FF90EF90089571
:10045000F62E0B8D10E00F5F1F4F0F731127E02E4C
:100460008C8D8E110CC00FB607FCFACFE889F98984
:10047000808185FFF5CFCE010E94DF01F1CFEB8DAA
:10048000EC0FFD2FF11DE35AFF4FF0829FB7F89458
:100490000B8FEA89FB8980818062CFCFCF93DF9376
:1004A000EC01888D8823B9F0AA89BB89E889F9898C
:1004B0008C9185FD03C0808186FD0DC00FB607FCC1
:1004C000F7CF8C9185FFF2CF808185FFEDCFCE01F4
:1004D0000E94DF01E9CFDF91CF91089520910A02B8
:1004E000260F3327331F21323105ECF420912E02E1
:1004F000FC0190E080E0243069F082E00895A09152
:100500000A022191AC0146515E4FA40FB52FB11DD7
:100510002C930196861798F380910A02680F6093D6
:100520000A0280E0089581E0089510922E0281E091
:100530008093300210922F0261E082E10E94DA0083
:1005400061E083E10E94DA00E9EBF0E080818E7FD8
:10055000808380818D7F808388E48093B80085E4E8
:100560008093BC000895CF93DF9391E09093E901CD
:100570008823B9F0C091B800D091BA008091BC0036
:100580008A7B8093BC0060E082E10E94DA0060E038
:1005900083E10E94DA000E949502D093BA00C093D2
:1005A000B800DF91CF9108950895E0915B028091AA
:1005B0005A02E81730F4F0E0EC53FE4F808190E0EF
:1005C00008958FEF9FEF089590915B0280915A02FA
:1005D0002FEF3FEF981748F4E92FF0E0EC53FE4F70
:1005E000208130E09F5F90935B02C9010895809164
:1005F0005A0290915B02891B990B0895CF92DF926A
:10060000EF92FF920F931F93CF93DF937C01CB0167
:100610008A012091C301222389F0EB016B01C40EF2
:10062000D51ECC15DD0569F06991D701ED91FC91DE
:100630000190F081E02DC7010995F3CF642F0E944E
:100640006E02C801DF91CF911F910F91FF90EF9043
:10065000DF90CF900895CF93DF931F92CDB7DEB791
:1006600069832091C3012223F9F02091580220329E
:1006700058F021E030E0FC013383228390E080E0F9
:100680000F90DF91CF91089580915902E82FF0E00B
:10069000ED55FE4F998190838F5F8093590280932F
:1006A000580281E090E0ECCF61E0CE0101960E941B
:1006B0006E02F7CFCF92DF92EF92FF920F931F93CC
:1006C000CF93DF93FC01C48121E02093C301C09349
:1006D000A20110925902109258028385682B82E081
:1006E00093E00E942B03D0915802D13208F092C0BF
:1006F0000E9408016B017C0180912E02811165C06E
:1007000082E080932E0281E0809330028FEF80930D
:100710002D0210925202D0935102A3EAB1E0E1E31C
:10072000F2E080E0D81385C010925302809153020A
:10073000CC0FC82BC093530280912F02813009F057
:100740007CC010922F020E9408016B017C018091F5
:1007500053028093BB008091E5019091E601A09146
:10076000E701B091E801892B8A2B8B2B99F00E942D
:1007700008010091E5011091E6012091E701309117
:10078000E8016C197D098E099F09061717072807CC
:100790003907E0F18091BC0083FDD9CF85EC8093CF
:1007A000BC000E9408016B017C0180912E02823006
:1007B00009F445C080912D028F3F61F180912D0297
:1007C000803241F180912D0225C08091E501909108
:1007D000E601A091E701B091E801892B8A2B8B2BD0
:1007E00009F48ACF0E9408010091E5011091E60109
:1007F0002091E7013091E8016C197D098E099F096C
:10080000061717072807390708F076CF8091E4010B
:100810000E94B30210925902109258021092C30122
:10082000DF91CF911F910F91FF90EF90DF90CF90CC
:1008300008959D9191938F5F75CF85EEB0CF809194
:10084000E5019091E601A091E701B091E801892BC3
:100850008A2B8B2B09F4A9CF0E9408010091E50196
:100860001091E6012091E7013091E8016C197D09B2
:100870008E099F09061717072807390708F095CF33
:10088000C5CF089590E080E008950F931F93CF9314
:100890008C01C62F0E945A036C2F6460C8010E940D
:1008A0005A036C2F6B7FC8010E945A0383EC90E0BF
:1008B0000197F1F7CF911F910F910895CF93C82F12
:1008C000682F607F85E193E00E94450480E1C89F26
:1008D000B001112485E193E0CF910C944504CF93AE
:1008E000DF93CDB7DEB728970FB6F894DEBF0FBE03
:1008F000CDBF98E0EAE4F1E0DE01119601900D929F
:100900009A95E1F790911D03961708F46FEF70E048
:10091000660F771F21E030E02C0F3D1F620F731F21
:10092000FB019081890F806828960FB6F894DEBF8E
:100930000FBECDBFDF91CF910C945E0481E00E9489
:100940005E048BE39FE10197F1F708950F931F93E6
:10095000CF938C01C62F607F61600E94450480E1C7
:10096000C89FB00111246160C8010E94450481E064
:1009700090E0CF911F910F910895CF92DF92EF9267
:10098000FF920F931F93CF93DF93EC018B017A01BA
:100990002A813B812617370750F5CB010896281787
:1009A000390728F5C880D9809B838A83880F991FCF
:1009B000009711F481E090E00E94E80B888399830E
:1009C000D601FC012C813D8190E080E082179307E5
:1009D00058F4309729F04D915C91119751834083E1
:1009E000019612963296F2CFC6010E94840C8C8139
:1009F0009D819C01220F331F8017910778F4E881B5
:100A0000F981E20FF31F309729F0D7014D915C91E6
:100A10005183408301962E5F3F4FEECF1D830C83A1
:100A2000DF91CF911F910F91FF90EF90DF90CF90CA
:100A30000895CF92DF92EF92FF920F931F93CF937F
:100A4000DF93E0901203F0901303E7012196EC1678
:100A5000FD0608F05DC08C01209110033091110358
:100A60002C173D0770F5C70109962817390748F577
:100A7000C0900E03D0900F03909311038093100346
:100A8000880F991F009711F481E090E00E94E80B15
:100A900080930E0390930F03D601FC0190E080E059
:100AA000E816F90659F0309729F02D913C911197ED
:100AB00031832083019612963296F2CFC6010E94AE
:100AC000840C80911203909113039C01220F331F19
:100AD000E0910E03F0910F03E20FF31F8C179D07B7
:100AE00050F4309729F0D8012D913C913183208327
:100AF00001963296F3CFD0931303C0931203DF9184
:100B0000CF911F910F91FF90EF90DF90CF900895BC
:100B10001092130310921203F2CFFC018081918195
:100B20000C94840CFC0101900020E9F73197AF018F
:100B3000481B590BBC0185E193E00C94610185EDE4
:100B40008093BC008091E5019091E601A091E701BE
:100B5000B091E8010796A11DB11D23E0B695A795B8
:100B6000979587952A95D1F72091BC0024FD03C065
:100B700010922E0208954091E5015091E601609196
:100B8000E7017091E801452B462B472B69F300974D
:100B9000A105B10541F02AE22A95F1F700C00197BD
:100BA000A109B109E1CF8091E4010C94B3021F9235
:100BB0000F920FB60F9211242F933F938F939F9311
:100BC000AF93BF9380915D0290915E02A0915F020E
:100BD000B091600230915C0223E0230F2D3758F56D
:100BE0000196A11DB11D20935C0280935D0290933C
:100BF0005E02A0935F02B0936002809161029091C7
:100C00006202A0916302B09164020196A11DB11D20
:100C10008093610290936202A0936302B093640296
:100C2000BF91AF919F918F913F912F910F900FBEE8
:100C30000F901F90189526E8230F0296A11DB11D55
:100C4000D2CF1F920F920FB60F9211242F933F9382
:100C50004F935F936F937F938F939F93AF93BF93C4
:100C6000EF93FF9385E692E00E94DF01FF91EF9101
:100C7000BF91AF919F918F917F916F915F914F91B4
:100C80003F912F910F900FBE0F901F9018951F92BC
:100C90000F920FB60F9211242F938F939F93EF9380
:100CA000FF93E0917502F09176028081E0917B02E2
:100CB000F0917C0282FD1BC0908180917E028F5F4B
:100CC0008F7320917F02821741F0E0917E02F0E065
:100CD000EB59FD4F958F80937E02FF91EF919F918D
:100CE0008F912F910F900FBE0F901F9018958081BC
:100CF000F4CF1F920F920FB60F9211242F933F93B0
:100D00004F935F936F937F938F939F93AF93BF9313
:100D1000EF93FF938091B900887F803609F44AC031
:100D2000F0F5883209F4A7C018F5803109F49BC0AA
:100D3000B8F4882309F4F9C0883009F494C0FF910D
:100D4000EF91BF91AF919F918F917F916F915F9143
:100D50004F913F912F910F900FBE0F901F901895BC
:100D6000883109F488C0803251F780932D0214C075
:100D7000803409F49DC040F48033B9F38833F9F628
:100D800080932D0285ECB0C0803509F485C088358C
:100D900009F496C0883499F60E949F05D0CF88390F
:100DA00009F48CC038F5883729F050F4883611F0F2
:100DB000803729F683E080932E0210922C0257C0D0
:100DC000883809F47BC0803919F0803809F0B7CF32
:100DD00080912C02803208F071C0E0912C0281E0F9
:100DE0008E0F80932C028091BB00F0E0E45FFD4FFA
:100DF00080833DC0803B39F0E0F4803A09F479C04B
:100E0000883A09F09CCF84E080932E0210920B0266
:100E100010920A02E0915602F091570209958091D2
:100E20000A0281110FC081E080930A021092EA0148
:100E300009C0803C09F4A6CF883C09F4A3CF883BC5
:100E400009F07DCFE0910B0281E08E0F80930B02C1
:100E5000F0E0E651FE4F80818093BB0090910B0241
:100E600080910A0229C0809153028093BB0085ECD7
:100E70008093BC0064CF90915202809151029817E8
:100E800058F5E091520281E08E0F80935202F0E01B
:100E9000EF5CFD4F8081E9CFE091520281E08E0F3F
:100EA000809352028091BB00F0E0EF5CFD4F8083A5
:100EB00090915202809151029817C8F285E8D8CFDC
:100EC000E091520281E08E0F809352028091BB002C
:100ED000F0E0EF5CFD4F80838091300281115CCFA8
:100EE00081E080932F0284EA8093BC0010922E024E
:100EF00026CF85EC8093BC0010922E0280912C02AC
:100F0000803230F4E0912C02F0E0E45FFD4F10827B
:100F100060912C0270E0E0915402F09155028CE057
:100F200092E0099510922C020ACF10922D0234CF34
:100F3000CF93DF93E5E6F2E01382128288EE93E02E
:100F4000A0E0B0E084839583A683B7832EE531E0EB
:100F50003183208325EC30E03587248724EC30E092
:100F60003787268720EC30E0318B208B21EC30E076
:100F7000338B228B22EC30E0358B248B26EC30E057
:100F8000378B268B118E128E138E148EE2E0F3E0D7
:100F90001382128284839583A683B78380E791E0CE
:100FA00091838083E5E1F3E01382128282E891E08D
:100FB0009183808380E5848380E1818782E08287DA
:100FC0001386CEE0D3E088E090E09B838A831D8285
:100FD0001C8280E190E00E94E80B99838883DF9176
:100FE000CF910895CF93DF93CDB7DEB762970FB659
:100FF000F894DEBF0FBECDBF789484B5826084BD07
:1010000084B5816084BD85B5826085BD85B581600C
:1010100085BD80916E00816080936E00109281008A
:101020008091810082608093810080918100816045
:101030008093810080918000816080938000809106
:10104000B10084608093B1008091B0008160809392
:10105000B00080917A00846080937A0080917A0059
:10106000826080937A0080917A00816080937A0018
:1010700080917A00806880937A001092C100E0919C
:101080007502F091760282E08083E0917102F09126
:1010900072021082E0917302F09174028FEC8083EF
:1010A00010927D02E0917902F0917A0286E08083CD
:1010B000E0917702F0917802808180618083E091F5
:1010C0007702F0917802808188608083E0917702D6
:1010D000F0917802808180688083E0917702F091BE
:1010E000780280818F7D808310925B0210925A0279
:1010F00010925902109258020E9495028FE591E0D9
:10110000909357028093560280E691E090935502A7
:101110008093540210921A0380911F03823018F0BA
:1011200098E090931A0380931D0362E370E080E0DF
:1011300090E00E942D016091200385E193E00E94E0
:101140005A0368EE73E080E090E00E942D0160E3B6
:1011500085E193E00E9445040BE416E4C801019781
:10116000F1F760E385E193E00E944504C80101972F
:10117000F1F760E385E193E00E94450483E592E0A6
:101180000197F1F760E285E193E00E9445048091C8
:101190001A0380620E945E0484E080931B038CE04B
:1011A0000E945E040E949E0482E080931C0386E0FD
:1011B0000E945E0482E00E945E048BE39FE101973F
:1011C000F1F788E08093200360E085E193E00E94DE
:1011D0005A0388E391E09A838983CE0101960E94A5
:1011E000190580E391E09A838983CE0101960E94DC
:1011F000190588E291E09A838983CE0101960E94C5
:10120000190580E291E09A838983CE0101960E94BC
:10121000190588E191E09A838983CE0101960E94A5
:10122000190580E191E09A838983CE0101960E949D
:10123000190588E091E09A838983CE0101960E9486
:10124000190580E091E09A838983CE0101960E947E
:101250001905F12CE12C8091120390911303E816EB
:10126000F90638F5E0910E03F0910F03C701880FDE
:10127000991FE80FF91FC080D1808E2D877028E05C
:10128000829FC001112480640E945E04860168016F
:1012900038E0C30ED11CF80161918F0185E193E024
:1012A0000E94A604C016D106B1F7FFEFEF1AFF0A9D
:1012B000D2CF10E000E08091120390911303081741
:1012C000190760F460E0802F0E946F04602F85E1B1
:1012D00093E00E94A6040F5F1F4FEDCF61E080E016
:1012E0000E946F048AE891E00E94920547E0842EF4
:1012F000912CA12CB12C52E0452E512C612C712C3B
:1013000038E0232E312C80911B038B7F80931B03AD
:1013100088600E945E0464EF71E080E090E00E94CB
:101320002D0180911B03982F946090931B038C6078
:101330000E945E0464EF71E080E090E00E942D0165
:1013400086E00E94B1006C0187E00E94B1007C0140
:1013500088E00E94B1008C0189E00E94B100CA942B
:10136000CD2849F0EA94EF2831F00130110519F049
:10137000019709F002C10E949E043B862A861D86C1
:101380001C8680E190E00E94E80B998788873C8268
:101390002B821E821D8280E190E00E94E80B9A83DE
:1013A00089830E949E0402E511E0F80180810E5FAE
:1013B0001F4F60E00E946F040E94270BA50194015B
:1013C0000E947F0B788B6F87E980FA808D819E81E8
:1013D000880F991F9701280F391F3A8B298B89890C
:1013E0009A89E816F906F1F0F701C190D1907F01D2
:1013F0008F859889C816D90691F70E94270BA501F9
:1014000094010E947F0B9601DD0C440B550B620F7B
:10141000731F841F951FA30192010E947F0B388BBD
:101420002F87DDCF68EE73E080E090E00E942D0111
:101430008D819E81BC016F5F7F4F8617970778F57E
:10144000AE01415F5F4FCE0101960E94BD046F85E2
:1014500085E193E00E94A604F1E00A351F0709F038
:10146000A4CF64E670E080E090E00E942D0186E069
:101470000E94B1006C0187E00E94B1007C0188E00D
:101480000E94B1008C0189E00E94B100CA94CD286D
:1014900071F58D819E81892B29F40E940D0D1E828C
:1014A0001D82D5CFE981FA8180819181988B8F87C8
:1014B00008851985EC84FD84EE0CFF1CE00EF11EFE
:1014C000D12CF801E016F106B9F10E5F1F4F208113
:1014D00031818F8598892817390799F70E949E04D2
:1014E00080E991E00E949205DD24D394EACFEA944A
:1014F000EF2849F48D819E81029778F2E981FA8183
:1015000082819381D3CF0130110549F48D819E8171
:10151000039718F2E981FA8184819581C7CF0197F9
:1015200009F09FCF8D819E81049708F4B6CFE981A1
:10153000FA8186819781BACF8C859D85BC016F5FCA
:101540007F4F8617970730F5AE01415F5F4FCE01A1
:1015500008960E94BD048C859D850797F1F40E9432
:101560009E0489E991E00E949205CE0101960E94B5
:101570008D05CE0108960E948D0580E090E0892BB4
:1015800009F4C1CE0E94CB01882309F4B9CE0E9490
:101590000000B6CE1D861C86DECFCE0101960E94CD
:1015A0008D05DD2009F4F3CEE4CF80910E039091F8
:1015B0000F030C94840C8F929F92AF92BF92CF92A4
:1015C000DF92EF92FF92CF93DF93EC0168817981F4
:1015D0008A819B81611571058105910521F464E281
:1015E00079ED8BE597E02DE133EF41E050E00E948B
:1015F0007F0B49015A019B01AC01A7EAB1E40E94AB
:101600009E0B6B017C01ACEEB4EFA50194010E942E
:10161000AC0BC60ED71EE81EF91EF7FE06C081E011
:10162000C81AD108E10880E8F80AC882D982EA829B
:10163000FB82C701B6019F77DF91CF91FF90EF90BA
:10164000DF90CF90BF90AF909F908F9008958F9232
:101650009F92AF92BF92CF92DF92EF92FF926091F2
:1016600040017091410180914201909143016115C7
:1016700071058105910521F464E279ED8BE597E030
:101680002DE133EF41E050E00E947F0B49015A0108
:101690009B01AC01A7EAB1E40E949E0B6B017C01A7
:1016A000ACEEB4EFA50194010E94AC0BC60ED71EA0
:1016B000E81EF91EF7FE06C081E0C81AD108E1084D
:1016C00080E8F80AC0924001D0924101E0924201C4
:1016D000F0924301C701B6019F77FF90EF90DF9032
:1016E000CF90BF90AF909F908F90089560934001EE
:1016F0007093410180934201909343010895052E18
:1017000097FB1EF400940E94960B57FD07D00E9491
:10171000B10B07FC03D04EF40C94960B50954095FA
:10172000309521953F4F4F4F5F4F0895909580958D
:10173000709561957F4F8F4F9F4F08950E94D30BF7
:10174000A59F900DB49F900DA49F800D911D112415
:101750000895B7FF0C949E0B0E949E0B821B930B67
:101760000895A1E21A2EAA1BBB1BFD010DC0AA1FE2
:10177000BB1FEE1FFF1FA217B307E407F50720F0FA
:10178000A21BB30BE40BF50B661F771F881F991F75
:101790001A9469F760957095809590959B01AC01BE
:1017A000BD01CF010895A29FB001B39FC001A39FC7
:1017B000700D811D1124911DB29F700D811D11248A
:1017C000911D0895EE0FFF1F0590F491E02D0994EF
:1017D0000F931F93CF93DF938230910510F482E033
:1017E00090E0E0912303F091240330E020E0B0E0AA
:1017F000A0E0309799F42115310509F44AC0281B5F
:10180000390B24303105D8F58A819B81611571052A
:1018100089F1FB0193838283FE0111C040815181D4
:101820000281138148175907E0F04817590799F4C6
:10183000109761F012960C93129713961C933296A0
:10184000CF01DF91CF911F910F9108950093230352
:1018500010932403F4CF2115310551F0421753079B
:1018600038F0A901DB019A01BD01DF01F801C1CF08
:10187000EF01F9CF9093240380932303CDCFFE0192
:10188000E20FF31F8193919322503109398328830A
:10189000D7CF2091210330912203232B41F42091B3
:1018A0004601309147013093220320932103209178
:1018B0004401309145012115310541F42DB73EB762
:1018C0004091480150914901241B350BE0912103BF
:1018D000F0912203E217F307A0F42E1B3F0B281709
:1018E000390778F0AC014E5F5F4F2417350748F099
:1018F0004E0F5F1F509322034093210381939193D6
:101900009FCFF0E0E0E09CCFCF93DF930097E9F02A
:10191000FC01329713821282A0912303B091240319
:10192000ED0130E020E01097A1F420813181820F99
:10193000931F20912103309122032817390709F0C2
:1019400061C0F0932203E0932103DF91CF910895CA
:10195000EA01CE17DF07E8F54A815B819E01411558
:101960005105B1F7E901FB83EA8349915991C40F0D
:10197000D51FEC17FD0761F4808191810296840FD9
:10198000951FE90199838883828193819B838A8350
:10199000F0E0E0E012968D919C9113970097B9F5D5
:1019A0002D913C911197CD010296820F931F2091AA
:1019B0002103309122032817390739F6309751F562
:1019C0001092240310922303B0932203A0932103C7
:1019D000BCCFD383C28340815181840F951FC81728
:1019E000D90761F44E5F5F4F88819981480F591F75
:1019F000518340838A819B819383828321153105A2
:101A000009F0B0CFF0932403E09323039ECFFD01B0
:101A1000DC01C0CF13821282D7CF81E090E0F8942E
:101A20000C94120D10E0CDE5D0E004C0FE010E9440
:0E1A3000E20B2196CE35D107C9F7F894FFCF0F
:101A3E00000004021F020400000E1111110A1B0007
:101A4E00001B1B0011111F00040A041F04040A11BD
:101A5E00040E0E0E1F000400000A1F1F0E040000CD
:101A6E000000001F000000000004041F040400001A
:101A7E00010000000000250380000000400014005B
:101A8E0054000000020004000600000000000102E5
:101A9E0061018E014E02BF019D01B10100000000E7
:101AAE002B03FE024204D402F702E402D502000028
:101ABE000000A60461014204410473746172740053
:101ACE00796F75206C6F737400796F752077696EFE
:021ADE00000006
:00000001FF
