:100000000C9462000C948A000C948A000C948A0070
:100010000C948A000C948A000C948A000C948A0038
:100020000C948A000C948A000C948A000C948A0028
:100030000C948A000C948A000C948A000C948A0018
:100040000C94F9030C948A000C94C7030C94A1033C
:100050000C948A000C948A000C948A000C948A00F8
:100060000C948A000C948A000000000024002700F1
:100070002A0000000000250028002B0000000000DE
:1000800023002600290004040404040404040202DA
:100090000202020203030303030301020408102007
:1000A0004080010204081020010204081020000012
:1000B0000008000201000003040700000000000027
:1000C0000000430411241FBECFEFD8E0DEBFCDBF38
:1000D00011E0A0E0B1E0EAEDFAE002C005900D9277
:1000E000AE31B107D9F721E0AEE1B1E001C01D9218
:1000F000AC3DB207E1F710E0C2E6D0E004C02197C2
:10010000FE010E946505C136D107C9F70E948D0422
:100110000C946B050C940000AF92BF92CF92DF92CB
:10012000EF92FF920F931F93CF93DF936C017B01AC
:100130008B01040F151FEB015E01AE18BF08C0173D
:10014000D10759F06991D601ED91FC910190F081B0
:10015000E02DC6010995892B79F7C501DF91CF9173
:100160001F910F91FF90EF90DF90CF90BF90AF90D5
:100170000895FC01538D448D252F30E0842F90E0AD
:10018000821B930B541710F0CF9608950197089592
:10019000FC01918D828D981761F0A28DAE0FBF2F5B
:1001A000B11D5D968C91928D9F5F9F73928F90E0B1
:1001B00008958FEF9FEF0895FC01918D828D981720
:1001C00031F0828DE80FF11D858D90E008958FEF5D
:1001D0009FEF0895FC01918D228D892F90E0805C26
:1001E0009F4F821B91098F739927089587E291E0B1
:1001F0000E94EA0021E0892B09F420E0822F089573
:1002000080E090E0892B29F00E94F60081110C9487
:1002100000000895FC01A48DA80FB92FB11DA35AA9
:10022000BF4F2C91848D90E001968F739927848F16
:10023000A689B7892C93A089B1898C918370806439
:100240008C93938D848D981306C00288F389E02DDA
:1002500080818F7D80830895EF92FF920F931F938B
:10026000CF93DF93EC0181E0888F9B8D8C8D981369
:100270001AC0E889F989808185FF15C09FB7F89475
:10028000EE89FF896083E889F989808183708064C1
:1002900080839FBF81E090E0DF91CF911F910F910C
:1002A000FF90EF900895F62E0B8D10E00F5F1F4F1B
:1002B0000F731127E02E8C8D8E110CC00FB607FC2A
:1002C000FACFE889F989808185FFF5CFCE010E94B8
:1002D0000A01F1CFEB8DEC0FFD2FF11DE35AFF4F1B
:1002E000F0829FB7F8940B8FEA89FB898081806246
:1002F000CFCFCF93DF93EC01888D8823B9F0AA8903
:10030000BB89E889F9898C9185FD03C0808186FDD0
:100310000DC00FB607FCF7CF8C9185FFF2CF80811F
:1003200085FFEDCFCE010E940A01E9CFDF91CF9189
:100330000895833081F028F4813099F08230A9F05B
:1003400008958730A9F08830C9F08430B1F48091E5
:1003500080008F7D03C0809180008F778093800024
:10036000089584B58F7784BD089584B58F7DFBCFC4
:100370008091B0008F778093B00008958091B00095
:100380008F7DF9CF1F93CF93DF93282F30E0F901B2
:10039000E255FF4F8491F901E656FF4FD491F901E0
:1003A000EA57FF4FC491CC23A9F0162F81110E9468
:1003B0009901EC2FF0E0EE0FFF1FEE58FF4FA591D3
:1003C000B4918FB7F894EC91111108C0D095DE2349
:1003D000DC938FBFDF91CF911F910895DE2BF8CF73
:1003E000CF93DF9390E0FC01E656FF4F24918A57AC
:1003F0009F4FFC0184918823D1F090E0880F991FD2
:10040000FC01E859FF4FA591B491FC01EE58FF4F54
:10041000C591D49161110EC09FB7F8948C91E22FD1
:10042000E0958E238C932881E223E8839FBFDF91A0
:10043000CF9108958FB7F894EC91E22BEC938FBF96
:10044000F6CF3FB7F8948091230190912401A091B9
:100450002501B091260126B5A89B05C02F3F19F0B4
:100460000196A11DB11D3FBFBA2FA92F982F882734
:10047000BC01CD01620F711D811D911D42E0660F0F
:10048000771F881F991F4A95D1F70895089590E026
:1004900080E00895CF93DF93EC0160E08E810E94AD
:1004A000C20161E08E810E94C20160E08E810E94E3
:1004B000C2018BE891E00197F1F7DF91CF910895A8
:1004C000CF92DF92EF92FF920F931F93CF93DF9320
:1004D0006C017C0187E0E80EF11CD0E0C0E0062F43
:1004E00010E0B8010C2E02C0759567950A94E2F7EA
:1004F0006170F70181917F010E94C2012196C43091
:10050000D10579F7C601DF91CF911F910F91FF902F
:10051000EF90DF90CF900C944A02CF92DF92EF924F
:10052000FF920F931F93CF93DF93EC01F62E642F6E
:100530008C810E94C2018D818F3F19F060E00E9482
:10054000C2010F2D10E08F8584FF25C06E0187E06A
:10055000C80ED11CF12CE12CB8010E2C02C07595EF
:1005600067950A94E2F76170F60181916F010E942C
:10057000C201FFEFEF1AFF0A88E0E816F10461F705
:10058000CE01DF91CF911F910F91FF90EF90DF90FF
:10059000CF900C944A02B80184E0759567958A95CE
:1005A000E1F7CE010E9460026F2DCE01DF91CF9165
:1005B0001F910F91FF90EF90DF90CF900C9460020D
:1005C000CF93DF93823029F49091D3019860909378
:1005D000D3018093D7011092D80180E48093D90190
:1005E00080E18093DA0180E58093DB0161E0809116
:1005F000C8010E94F0018091C9018F3F19F061E0AC
:100600000E94F00161E08091CA010E94F001C4ECF7
:10061000D1E09E01245C31408091D30184FD0BC068
:1006200084E090E021962817390744F461E08E8138
:100630000E94F001EECF88E090E0F4CF8BE39DE0E4
:100640000197F1F760E08091C8010E94C20160E06B
:100650008091CA010E94C2018091C9018F3F19F0A7
:1006600060E00E94C2016091D30164FD45C063E077
:1006700084EC91E00E946002CBE4D6E4CE010197C5
:10068000F1F763E084EC91E00E9460022197F1F7BA
:1006900063E084EC91E00E94600283E592E00197C0
:1006A000F1F762E084EC91E00E9460026091D30176
:1006B000606240E084EC91E00E948D0284E08093CF
:1006C000D40140E06CE084EC91E00E948D0240E0B7
:1006D00061E084EC91E00E948D028BE39FE1019741
:1006E000F1F782E08093D50140E066E084EC91E090
:1006F000DF91CF910C948D02606240E084EC91E038
:100700000E948D028BE496E40197F1F76091D3018A
:10071000606240E084EC91E00E948D0283E592E00B
:100720000197F1F76091D301606240E084EC91E0C1
:100730000E948D02BBCF41E00E948D0281E090E0DB
:1007400008951F920F920FB60F9211242F933F938B
:100750004F935F936F937F938F939F93AF93BF93C9
:10076000EF93FF9387E291E00E940A01FF91EF91DE
:10077000BF91AF919F918F917F916F915F914F91B9
:100780003F912F910F900FBE0F901F9018951F92C1
:100790000F920FB60F9211242F938F939F93EF9385
:1007A000FF93E0913701F09138018081E0913D01A4
:1007B000F0913E0182FD1BC09081809140018F5FCE
:1007C0008F7320914101821741F0E0914001F0E0E8
:1007D000E95DFE4F958F80934001FF91EF919F91CE
:1007E0008F912F910F900FBE0F901F9018958081C1
:1007F000F4CF1F920F920FB60F9211242F933F93B5
:100800008F939F93AF93BF9380911F01909120018D
:10081000A0912101B091220130911E0123E0230F0C
:100820002D3758F50196A11DB11D20931E0180930F
:100830001F0190932001A0932101B0932201809188
:10084000230190912401A0912501B09126010196E8
:10085000A11DB11D8093230190932401A093250134
:10086000B0932601BF91AF919F918F913F912F91AE
:100870000F900FBE0F901F90189526E8230F029639
:10088000A11DB11DD2CFE7E2F1E01382128288EE02
:1008900093E0A0E0B0E084839583A683B78384E0EF
:1008A00091E09183808385EC90E09587848784EC48
:1008B00090E09787868780EC90E0918B808B81EC2D
:1008C00090E0938B828B82EC90E0958B848B86EC0E
:1008D00090E0978B868B118E128E138E148EE4EC23
:1008E000F1E01382128286E191E0918380838CE0B3
:1008F00084838FEF85838BE0868385E0878384E024
:10090000808783E0818782E082871386148615863C
:100910001686178681E00C94E002789484B5826094
:1009200084BD84B5816084BD85B5826085BD85B593
:10093000816085BD80916E00816080936E00109211
:10094000810080918100826080938100809181008C
:10095000816080938100809180008160809380001D
:100960008091B10084608093B1008091B00081607B
:100970008093B00080917A00846080937A008091A7
:100980007A00826080937A0080917A0081608093FF
:100990007A0080917A00806880937A001092C1007A
:1009A000E0913701F091380182E08083E0913301DA
:1009B000F09134011082E0913501F09136018FEC15
:1009C000808310923F01E0913B01F0913C0186E071
:1009D0008083E0913901F0913A01808180618083C8
:1009E000E0913901F0913A01808188608083E09143
:1009F0003901F0913A01808180688083E09139016A
:100A0000F0913A0180818F7D808382E00E94E00234
:100A10000E9421024B015C0134E6C32ED12CE12C53
:100A2000F12C0E942102681979098A099B09683E04
:100A3000734081059105A8F321E0C21AD108E108AD
:100A4000F10888EE880E83E0981EA11CB11CC11429
:100A5000D104E104F10429F760E088E00E94F0018C
:100A600061E08DE00E94F001C6EBD0E002EA10E008
:100A70009EE8E92E90E0F92E20E0C22E20E0D22E52
:100A8000FE018491F801A490F701B490BB2079F0A5
:100A900081110E949901EB2DF0E0EE0FFF1FE45849
:100AA000FF4FA591B4918C91A82260E009F461E018
:100AB0008DE00E94C201C114D10411F30E94F6001E
:100AC0008823F1F20E940000DBCFEE0FFF1F05909C
:0A0AD000F491E02D0994F894FFCF93
:100ADA00000000002C018C00B9007901EA00C8006E
:0E0AEA00DC00000000009B038C004702460267
:00000001FF
