:100000000C9458000C9480000C9480000C94800098
:100010000C9480000C9480000C9480000C94800060
:100020000C9480000C9480000C9480000C94800050
:100030000C9480000C9480000C9480000C94800040
:100040000C9499030C9480000C9480000C94800014
:100050000C9480000C9480000C9480000C94800020
:100060000C94E3030C94800000000000250028009D
:100070002B00040404040404040402020202020229
:10008000030303030303010204081020408001025C
:1000900004081020010204081020000000080002DB
:1000A000010000030407000000000000000002053A
:1000B00011241FBECFEFD8E0DEBFCDBF11E0A0E01E
:1000C000B1E0E6EFFBE002C005900D92AA32B10765
:1000D000D9F722E0AAE2B1E001C01D92A530B20733
:1000E000E1F710E0C8E5D0E004C02197FE010E94CE
:1000F000F305C735D107C9F70E9422050C94F9050D
:100100000C94000008950895AF92BF92CF92DF92B1
:10011000EF92FF920F931F93CF93DF936C017B01BC
:100120008B01040F151FEB015E01AE18BF08C0174D
:10013000D10759F06991D601ED91FC910190F081C0
:10014000E02DC6010995892B79F7C501DF91CF9183
:100150001F910F91FF90EF90DF90CF90BF90AF90E5
:10016000089590E0FC01E656FF4F2491FC01EA5708
:10017000FF4F3491FC01EE58FF4FE491EE23C9F09C
:10018000222339F0233001F1A8F4213019F1223073
:1001900029F1F0E0EE0FFF1FE859FF4FA591B49150
:1001A0008FB7F894EC91611126C030953E233C93B3
:1001B0008FBF08952730A9F02830C9F0243049F7BF
:1001C000809180008F7D03C0809180008F77809325
:1001D0008000DFCF84B58F7784BDDBCF84B58F7D82
:1001E000FBCF8091B0008F778093B000D2CF809109
:1001F000B0008F7DF9CF3E2BDACF3FB7F8948091D6
:10020000E1019091E201A091E301B091E40126B5F2
:10021000A89B05C02F3F19F00196A11DB11D3FBF3E
:10022000BA2FA92F982F8827BC01CD01620F711D0D
:10023000811D911D42E0660F771F881F991F4A9507
:10024000D1F708958F929F92AF92BF92CF92DF9293
:10025000EF92FF924B015C010E94FD006B017C015B
:100260000E94FD006C197D098E099F09683E73404C
:1002700081059105A8F321E0821A9108A108B1082F
:1002800088EEC80E83E0D81EE11CF11C8114910495
:10029000A104B10429F7FF90EF90DF90CF90BF90B9
:1002A000AF909F908F90089520919201260F332751
:1002B000331F21323105ECF42091B601FC0190E0AE
:1002C00080E0243069F082E00895A09192012191AC
:1002D000AC014E585E4FA40FB52FB11D2C93019663
:1002E000861798F380919201680F6093920180E0E5
:1002F000089581E008951092B60181E08093B801DD
:100300001092B70161E082E10E94B10061E083E1F7
:100310000E94B100E9EBF0E080818E7F80838081D4
:100320008D7F808388E48093B80085E48093BC004F
:100330000895CF93DF9391E0909371018823B9F0F2
:10034000C091B800D091BA008091BC008A7B8093A4
:10035000BC0060E082E10E94B10060E083E10E94A5
:10036000B1000E947B01D093BA00C093B800DF9126
:10037000CF9108950895E091EC018091EB01E81789
:1003800030F4F0E0E45BFE4F808190E008958FEF61
:100390009FEF08959091EC018091EB012FEF3FEFDB
:1003A000981748F4E92FF0E0E45BFE4F208130E03D
:1003B0009F5F9093EC01C90108958091EB019091AA
:1003C000EC01891B990B0895CF92DF92EF92FF9277
:1003D0000F931F93CF93DF937C01CB018A01209170
:1003E0004B01222389F0EB016B01C40ED51ECC1505
:1003F000DD0569F06991D701ED91FC910190F081E3
:10040000E02DC7010995F3CF642F0E945401C80164
:10041000DF91CF911F910F91FF90EF90DF90CF90E0
:100420000895CF93DF931F92CDB7DEB769832091F4
:100430004B012223F9F02091E901203258F021E00C
:1004400030E0FC013383228390E080E00F90DF9165
:10045000CF9108958091EA01E82FF0E0E55DFE4F2D
:10046000998190838F5F8093EA018093E90181E015
:1004700090E0ECCF61E0CE0101960E945401F7CFED
:10048000CF92DF92EF92FF920F931F93CF93DF9360
:10049000FC01C48121E020934B01C0932A011092FA
:1004A000EA011092E9018385682B8DEE91E00E94AC
:1004B0001102D091E901D13208F092C00E94FD00F2
:1004C0006B017C018091B601811165C082E080934F
:1004D000B60181E08093B8018FEF8093B50110924F
:1004E000DA01D093D901ABE2B1E0E9EBF1E080E0D1
:1004F000D81385C01092DB018091DB01CC0FC82B93
:10050000C093DB018091B701813009F07CC010926B
:10051000B7010E94FD006B017C018091DB0180939B
:10052000BB0080916D0190916E01A0916F01B0911F
:100530007001892B8A2B8B2B99F00E94FD00009172
:100540006D0110916E0120916F01309170016C1955
:100550007D098E099F090617170728073907E0F15B
:100560008091BC0083FDD9CF85EC8093BC000E94B4
:10057000FD006B017C018091B601823009F445C019
:100580008091B5018F3F61F18091B501803241F1D9
:100590008091B50125C080916D0190916E01A0916F
:1005A0006F01B0917001892B8A2B8B2B09F48ACFB4
:1005B0000E94FD0000916D0110916E0120916F016C
:1005C000309170016C197D098E099F090617170774
:1005D0002807390708F076CF80916C010E949901B5
:1005E0001092EA011092E90110924B01DF91CF9134
:1005F0001F910F91FF90EF90DF90CF9008959D9104
:1006000091938F5F75CF85EEB0CF80916D01909102
:100610006E01A0916F01B0917001892B8A2B8B2BF9
:1006200009F4A9CF0E94FD0000916D0110916E01A7
:1006300020916F01309170016C197D098E099F091D
:10064000061717072807390708F095CFC5CF089573
:1006500090E080E0089585ED8093BC0080916D016D
:1006600090916E01A0916F01B09170010796A11D4C
:10067000B11D23E0B695A795979587952A95D1F753
:100680002091BC0024FD03C01092B6010895409152
:100690006D0150916E0160916F0170917001452B59
:1006A000462B472B69F30097A105B10541F025E3DF
:1006B0002A95F1F700000197A109B109E1CF8091D6
:1006C0006C010C9499010F931F93CF938C01C62F4B
:1006D0000E9440026C2F6460C8010E9440026C2F8F
:1006E0006B7FC8010E94400283EC90E00197F1F714
:1006F000CF911F910F9108950F931F93CF93DF9385
:100700008C01D62FC42F607F642B0E94630380E18D
:10071000D89FB00111246C2BC801DF91CF911F919C
:100720000F910C94630341E00E947C0381E090E010
:1007300008951F920F920FB60F9211242F933F939B
:100740008F939F93AF93BF938091DD019091DE01D2
:10075000A091DF01B091E0013091DC0123E0230F93
:100760002D3758F50196A11DB11D2093DC01809312
:10077000DD019093DE01A093DF01B093E001809151
:10078000E1019091E201A091E301B091E4010196B1
:10079000A11DB11D8093E1019093E201A093E301BB
:1007A000B093E401BF91AF919F918F913F912F91B1
:1007B0000F900FBE0F901F90189526E8230F0296FA
:1007C000A11DB11DD2CF1F920F920FB60F9211240F
:1007D0002F933F934F935F936F937F938F939F9349
:1007E000AF93BF93EF93FF938091B900887F8036DA
:1007F00009F44AC0F0F5883209F4A7C018F5803131
:1008000009F49BC0B8F4882309F4F9C0883009F4CE
:1008100094C0FF91EF91BF91AF919F918F917F9184
:100820006F915F914F913F912F910F900FBE0F905D
:100830001F901895883109F488C0803251F7809351
:10084000B50114C0803409F49DC040F48033B9F37D
:100850008833F9F68093B50185ECB0C0803509F492
:1008600085C0883509F496C0883499F60E942B0318
:10087000D0CF883909F48CC038F5883729F050F486
:10088000883611F0803729F683E08093B601109204
:10089000B40157C0883809F47BC0803919F080381A
:1008A00009F0B7CF8091B401803208F071C0E091B7
:1008B000B40181E08E0F8093B4018091BB00F0E021
:1008C000EC56FE4F80833DC0803B39F0E0F4803A27
:1008D00009F479C0883A09F09CCF84E08093B6018E
:1008E0001092930110929201E091E701F091E801DA
:1008F00009958091920181110FC081E0809392014E
:100900001092720109C0803C09F4A6CF883C09F41A
:10091000A3CF883B09F07DCFE091930181E08E0F5A
:1009200080939301F0E0EE58FE4F80818093BB00EE
:10093000909193018091920129C08091DB01809375
:10094000BB0085EC8093BC0064CF9091DA0180916C
:10095000D901981758F5E091DA0181E08E0F809364
:10096000DA01F0E0E754FE4F8081E9CFE091DA014F
:1009700081E08E0F8093DA018091BB00F0E0E754B4
:10098000FE4F80839091DA018091D9019817C8F2C7
:1009900085E8D8CFE091DA0181E08E0F8093DA010B
:1009A0008091BB00F0E0E754FE4F80838091B80156
:1009B00081115CCF81E08093B70184EA8093BC0011
:1009C0001092B60126CF85EC8093BC001092B60140
:1009D0008091B401803230F4E091B401F0E0EC5643
:1009E000FE4F10826091B40170E0E091E501F0915A
:1009F000E60184E991E009951092B4010ACF1092C2
:100A0000B50134CFEDEEF1E01382128288EE93E06F
:100A1000A0E0B0E084839583A683B78384E091E06F
:100A200091838083E9EFF1E01382128286E191E005
:100A30009183808380E5848380E1818782E082875F
:100A400013860895789484B5826084BD84B58160EE
:100A500084BD85B5826085BD85B5816085BD809189
:100A60006E00816080936E00109281008091810001
:100A700082608093810080918100816080938100F9
:100A8000809180008160809380008091B1008460BB
:100A90008093B1008091B00081608093B00080911C
:100AA0007A00846080937A0080917A0082608093DB
:100AB0007A0080917A00816080937A0080917A0038
:100AC000806880937A001092C1001092EC0110921D
:100AD000EB011092EA011092E9010E947B0182E889
:100AE00090E09093E8018093E70183E890E0909391
:100AF000E6018093E5011092FE01809103028230AD
:100B000018F098E09093FE018093010262E370E098
:100B100080E090E00E9422016091040289EF91E060
:100B20000E94400268EE73E080E090E00E942201A3
:100B300060E389EF91E00E946303CBE4D6E4CE0149
:100B40000197F1F760E389EF91E00E946303219739
:100B5000F1F760E389EF91E00E94630383E592E09F
:100B60000197F1F760E289EF91E00E9463036091E1
:100B7000FE01606240E089EF91E00E947C0384E026
:100B80008093FF0140E06CE089EF91E00E947C03DC
:100B900040E061E089EF91E00E947C03CBE3DFE17C
:100BA000CE010197F1F782E08093000240E066E019
:100BB00089EF91E00E947C0340E062E089EF91E0E0
:100BC0000E947C032197F1F74BE050E06EE171E069
:100BD00089EF91E00E948400C0E0D0E02097F1F31B
:100BE0000E940000FBCFEE0FFF1F0590F491E02D57
:060BF0000994F894FFCF08
:100BF600000000001102E4012803BA01DD01CA0168
:100C0600BB010000000093038400280327036865E6
:0A0C16006C6C6F20776F726C640045
:00000001FF
