:100000000C9463000C948B000C948B000C948B006C
:100010000C948B000C948B000C948B000C947B053F
:100020000C948B000C948B000C948B000C948B0024
:100030000C948B000C948B000C948B000C948B0014
:100040000C94D7050C948B000C948B000C948B00B3
:100050000C948B000C948B000C948B000C948B00F4
:100060000C9421060C948B00000000002300260055
:10007000290000000008000201000003040700003E
:100080000000000000000200000000250028002BF6
:100090000000000000240027002A000404040404D7
:1000A0000404040202020202020303030303030125
:1000B00002040810204080010204081020010204FC
:1000C00008102000400711241FBECFEFD8E0DEBF8C
:1000D000CDBF11E0A0E0B1E0E2E3F6E102C005909F
:1000E0000D92AC36B107D9F722E0ACE6B1E001C021
:1000F0001D92A038B207E1F710E0C3E6D0E004C0DB
:100100002197FE010E94110BC236D107C9F70E9448
:1001100060070C94170B0C94000090E0FC01E15573
:10012000FF4F249185569F4FFC018491882399F0BD
:1001300090E0880F991FFC01EF56FF4FA591B491F5
:10014000FC01E957FF4F859194918FB7F894EC919A
:10015000E22BEC938FBF089508950895AF92BF925C
:10016000CF92DF92EF92FF920F931F93CF93DF9383
:100170006C017B018B01040F151FEB015E01AE18B2
:10018000BF08C017D10759F06991D601ED91FC91D4
:100190000190F081E02DC6010995892B79F7C50101
:1001A000DF91CF911F910F91FF90EF90DF90CF9053
:1001B000BF90AF900895833081F028F4813099F09A
:1001C0008230A9F008958730A9F08830C9F08430D2
:1001D000B1F4809180008F7D03C0809180008F7783
:1001E00080938000089584B58F7784BD089584B589
:1001F0008F7DFBCF8091B0008F778093B000089502
:100200008091B0008F7DF9CF1F93CF93DF93282F7C
:1002100030E0F901EE58FF4F8491F901E155FF4FAD
:10022000D491F901E556FF4FC491CC23A9F0162FC4
:1002300081110E94DB00EC2FF0E0EE0FFF1FE95769
:10024000FF4FA591B4918FB7F894EC91111108C0AC
:10025000D095DE23DC938FBFDF91CF911F9108955E
:10026000DE2BF8CF9091380189130BC0E6E8F0E05F
:10027000E4919FEF90933801E13049F028F0E230AB
:1002800061F060E00C94040110926E00FACF90913E
:100290006F009D7F90936F00F4CF909170009D7FD1
:1002A0009093700091E09093B0009091B100987F8E
:1002B00094609093B1001092B300E3CF3FB7F894ED
:1002C0008091230290912402A0912502B0912602F0
:1002D00026B5A89B05C02F3F19F00196A11DB11DA1
:1002E0003FBFBA2FA92F982F8827BC01CD01620FDD
:1002F000711D811D911D42E0660F771F881F991F98
:100300004A95D1F708958F929F92AF92BF92CF9264
:10031000DF92EF92FF924B015C010E945E016B0144
:100320007C010E945E016C197D098E099F09683E5F
:10033000734081059105A8F321E0821A9108A10874
:10034000B10888EEC80E83E0D81EE11CF11C8114B0
:100350009104A104B10429F7FF90EF90DF90CF90B2
:10036000BF90AF909F908F9008952091D401260F59
:100370003327331F21323105ECF42091F801FC01C1
:1003800090E080E0243069F082E00895A091D401EB
:100390002191AC014C545E4FA40FB52FB11D2C938D
:1003A0000196861798F38091D401680F6093D40169
:1003B00080E0089581E008951092F80181E0809333
:1003C000FA011092F90161E082E10E94040161E00A
:1003D00083E10E940401E9EBF0E080818E7F80835D
:1003E00080818D7F808388E48093B80085E480934A
:1003F000BC000895CF93DF9391E09093B3018823DD
:10040000B9F0C091B800D091BA008091BC008A7B4D
:100410008093BC0060E082E10E94040160E083E11F
:100420000E9404010E94DC01D093BA00C093B8007E
:10043000DF91CF9108950895E0912E0280912D02D1
:10044000E81730F4F0E0E257FE4F808190E0089525
:100450008FEF9FEF089590912E0280912D022FEF44
:100460003FEF981748F4E92FF0E0E257FE4F208164
:1004700030E09F5F90932E02C901089580912D0274
:1004800090912E02891B990B0895CF92DF92EF92E3
:10049000FF920F931F93CF93DF937C01CB018A01CF
:1004A00020918D01222389F0EB016B01C40ED51E32
:1004B000CC15DD0569F06991D701ED91FC910190B2
:1004C000F081E02DC7010995F3CF642F0E94B5019B
:1004D000C801DF91CF911F910F91FF90EF90DF90B6
:1004E000CF900895CF93DF931F92CDB7DEB7698386
:1004F00020918D012223F9F020912B02203258F017
:1005000021E030E0FC013383228390E080E00F9013
:10051000DF91CF91089580912C02E82FF0E0E3590C
:10052000FE4F998190838F5F80932C0280932B02E2
:1005300081E090E0ECCF61E0CE0101960E94B50130
:10054000F7CFCF92DF92EF92FF920F931F93CF934B
:10055000DF93FC01C48121E020938D01C0936C01E5
:1005600010922C0210922B028385682B88E692E071
:100570000E947202D0912B02D13208F092C00E94E8
:100580005E016B017C018091F801811165C082E000
:100590008093F80181E08093FA018FEF8093F70157
:1005A00010921C02D0931B02ADE6B1E0EBEFF1E03C
:1005B00080E0D81385C010921D0280911D02CC0FDF
:1005C000C82BC0931D028091F901813009F07CC0D5
:1005D0001092F9010E945E016B017C0180911D0265
:1005E0008093BB008091AF019091B001A091B101C7
:1005F000B091B201892B8A2B8B2B99F00E945E015E
:100600000091AF011091B0012091B1013091B20180
:100610006C197D098E099F090617170728073907E6
:10062000E0F18091BC0083FDD9CF85EC8093BC00C4
:100630000E945E016B017C018091F801823009F417
:1006400045C08091F7018F3F61F18091F7018032C1
:1006500041F18091F70125C08091AF019091B001E7
:10066000A091B101B091B201892B8A2B8B2B09F497
:100670008ACF0E945E010091AF011091B0012091DC
:10068000B1013091B2016C197D098E099F090617DD
:1006900017072807390708F076CF8091AE010E942E
:1006A000FA0110922C0210922B0210928D01DF9110
:1006B000CF911F910F91FF90EF90DF90CF90089511
:1006C0009D9191938F5F75CF85EEB0CF8091AF01F3
:1006D0009091B001A091B101B091B201892B8A2B08
:1006E0008B2B09F4A9CF0E945E010091AF011091FC
:1006F000B0012091B1013091B2016C197D098E09D0
:100700009F09061717072807390708F095CFC5CFA7
:10071000089590E080E00895FC0130E020E040E2A0
:1007200055E091912F303105B9F08081963041F13B
:1007300044F49530F9F02F5F3F4F2031310589F7B0
:1007400016C0973009F19032B1F7853089F080E218
:10075000DF0111978C93EFCF862F963089F01CF430
:10076000953041F00895973079F0903271F3089503
:1007700086E0EECF803211F085E0EACF87E0E8CF67
:10078000DF0111975C93D7CFDF0111974C93D3CF43
:10079000FC0101900020E9F73197AF01481B590B8C
:1007A000BC0184E792E00C94AE000F931F93CF93AB
:1007B0008C01C62F0E94A1026C2F6460C8010E94A8
:1007C000A1026C2F6B7FC8010E94A10283EC90E014
:1007D0000197F1F7CF911F910F9108950F931F93F8
:1007E000CF93DF938C01D62FC42F607F642B0E94A0
:1007F000D50380E1D89FB00111246C2BC801DF9193
:10080000CF911F910F910C94D503CF93DF93CDB768
:10081000DEB728970FB6F894DEBF0FBECDBF98E0C5
:10082000EFE3F1E0DE01119601900D929A95E1F768
:1008300090917C02961708F46FEF262F30E0220F7C
:10084000331F41E050E04C0F5D1F240F351FF901AD
:100850006081680F606840E084E792E028960FB6F8
:10086000F894DEBF0FBECDBFDF91CF910C94EE03A5
:100870004F925F926F927F92AF92BF92CF92DF9230
:10088000EF92FF920F931F93CF93DF93CDB7DEB715
:10089000A1970FB6F894DEBF0FBECDBF7B01B0901D
:1008A0005802A09047028D3008F0ACC0E82FF0E06D
:1008B000E45AFB4F0C94110B0A05F804F8040705E1
:1008C000F504F204F204F204F204F50407056904E5
:1008D000040580E291E09093580211E020E2B21208
:1008E00001C010E0803209F084C004E088EEE81610
:1008F00083E0F80658F403E094E6E916F10430F4D6
:1009000001E0EAE0EE16F10408F002E08EE28093E6
:1009100067028093560290E1C92ED12CC01AD108EB
:100920009601295A3D4F6901F9017080808360E08A
:1009300080E00E94050487E592E00E94C803F6016A
:10094000708261E080E00E94050486E492E00E94EB
:10095000C80360E080E1801B0E940504970150E01D
:1009600040E019A27E01F1E2EF0EF11C6AE0462E92
:10097000512C612C712CCA01B901A30192010E9472
:10098000E00A605DF70162937F01211531054105A1
:10099000510589F7309761F001900020E9F7319710
:1009A000AF014E195F09B70184E792E00E94AE00E3
:1009B000B0925802A0924702812FA1960FB6F894E8
:1009C000DEBF0FBECDBFDF91CF911F910F91FF9082
:1009D000EF90DF90CF90BF90AF907F906F905F903F
:1009E0004F90089580E293E076CF84E09EE273CF4B
:1009F00010E08093470281E030E2A31201C080E062
:100A0000182B73CF90E067CF80E292E064CF10E0C4
:100A100083E0EFCF10E069CF41E00E94EE0381E078
:100A200090E00895EF92FF920F931F93CF9300E011
:100A300011E0C8E040E06C2F606484E792E00E941F
:100A4000EE03780188E0E80EF11CF80161918F0156
:100A500084E792E00E940C050E151F05B1F7C85FF0
:100A6000C03441F7E7E5F2E0A6E4B2E080E281932A
:100A70008D9392E0E736F907D1F7CF911F910F914F
:100A8000FF90EF90089585ED8093BC008091AF01B9
:100A90009091B001A091B101B091B2010796A11D52
:100AA000B11D23E0B695A795979587952A95D1F71F
:100AB0002091BC0024FD03C01092F80108954091DC
:100AC000AF015091B0016091B1017091B201452B1D
:100AD000462B472B69F30097A105B10541F025E3AB
:100AE0002A95F1F700000197A109B109E1CF8091A2
:100AF000AE010C94FA011F920F920FB60F921124BF
:100B00002F933F934F935F936F937F938F939F9315
:100B1000AF93BF93EF93FF9380913402909135028E
:100B2000A0913602B0913702892B8A2B8B2BD1F101
:100B300090912F02E0913002F0913102808189275B
:100B400080838091340290913502A0913602B09159
:100B50003702181619061A061B069CF480913402F7
:100B600090913502A0913602B09137020197A10908
:100B7000B1098093340290933502A0933602B0936A
:100B80003702FF91EF91BF91AF919F918F917F912C
:100B90006F915F914F913F912F910F900FBE0F90EA
:100BA0001F901895809138010E943201EACF1F9260
:100BB0000F920FB60F9211242F933F938F939F9311
:100BC000AF93BF9380911F0290912002A0912102C8
:100BD000B091220230911E0223E0230F2D3758F5E9
:100BE0000196A11DB11D20931E0280931F029093B8
:100BF0002002A0932102B0932202809123029091BF
:100C00002402A0912502B09126020196A11DB11DDA
:100C10008093230290932402A0932502B09326028E
:100C2000BF91AF919F918F913F912F910F900FBEE8
:100C30000F901F90189526E8230F0296A11DB11D55
:100C4000D2CF1F920F920FB60F9211242F933F9382
:100C50004F935F936F937F938F939F93AF93BF93C4
:100C6000EF93FF938091B900887F803609F44AC0E2
:100C7000F0F5883209F4A7C018F5803109F49BC05B
:100C8000B8F4882309F4F9C0883009F494C0FF91BE
:100C9000EF91BF91AF919F918F917F916F915F91F4
:100CA0004F913F912F910F900FBE0F901F9018956D
:100CB000883109F488C0803251F78093F70114C05D
:100CC000803409F49DC040F48033B9F38833F9F6D9
:100CD0008093F70185ECB0C0803509F485C0883574
:100CE00009F496C0883499F60E944305D0CF88391C
:100CF00009F48CC038F5883729F050F4883611F0A3
:100D0000803729F683E08093F8011092F60157C0EE
:100D1000883809F47BC0803919F0803809F0B7CFE2
:100D20008091F601803208F071C0E091F60181E017
:100D30008E0F8093F6018091BB00F0E0EA52FE4FE7
:100D400080833DC0803B39F0E0F4803A09F479C0FB
:100D5000883A09F09CCF84E08093F8011092D50185
:100D60001092D401E0912902F0912A020995809114
:100D7000D40181110FC081E08093D4011092B4019D
:100D800009C0803C09F4A6CF883C09F4A3CF883B76
:100D900009F07DCFE091D50181E08E0F8093D501E0
:100DA000F0E0EC54FE4F80818093BB009091D50120
:100DB0008091D40129C080911D028093BB0085ECF5
:100DC0008093BC0064CF90911C0280911B02981705
:100DD00058F5E0911C0281E08E0F80931C02F0E038
:100DE000E550FE4F8081E9CFE0911C0281E08E0F3B
:100DF00080931C028091BB00F0E0E550FE4F8083A1
:100E000090911C0280911B029817C8F285E8D8CFF8
:100E1000E0911C0281E08E0F80931C028091BB0048
:100E2000F0E0E550FE4F80838091FA0181115CCFA4
:100E300081E08093F90184EA8093BC001092F8016C
:100E400026CF85EC8093BC001092F8018091F601CA
:100E5000803230F4E091F601F0E0EA52FE4F108269
:100E60006091F60170E0E0912702F091280286ED92
:100E700091E009951092F6010ACF1092F70134CF54
:100E8000E8E6F2E01382128288EE93E0A0E0B0E0A0
:100E900084839583A683B7838BE491E091838083D9
:100EA000E4E7F2E0138212828DE591E09183808382
:100EB00080E5848380E1818782E0828713860895BC
:100EC000789484B5826084BD84B5816084BD85B525
:100ED000826085BD85B5816085BD80916E00816031
:100EE00080936E00109281008091810082608093D7
:100EF00081008091810081608093810080918000D9
:100F00008160809380008091B10084608093B10003
:100F10008091B00081608093B00080917A008460FD
:100F200080937A0080917A00826080937A00809129
:100F30007A00816080937A0080917A008068809343
:100F40007A001092C10010922E0210922D0210927F
:100F50002C0210922B020E94DC018CEA90E090930C
:100F60002A02809329028DEA90E0909328028093D0
:100F700027021092790280917E02823018F098E068
:100F80009093790280937C0262E370E080E090E0CD
:100F90000E94830160917F0284E792E00E94A10297
:100FA00068EE73E080E090E00E94830160E384E7F4
:100FB00092E00E94D503CBE4D6E4CE010197F1F78D
:100FC00060E384E792E00E94D5032197F1F760E3A4
:100FD00084E792E00E94D50383E592E00197F1F760
:100FE00060E284E792E00E94D5036091790260623A
:100FF00040E084E792E00E94EE0384E080937A026E
:1010000040E06CE084E792E00E94EE0340E061E0A3
:1010100084E792E00E94EE03CBE3DFE1CE0101978B
:10102000F1F782E080937B0240E066E084E792E0A3
:101030000E94EE0340E062E084E792E00E94EE034B
:101040002197F1F70E9412058DE00E948D0083E048
:101050000E948D007AE0872E912CA12CB12CE3E028
:101060004E2E512C612C712CF0E5CF2ED12CE12C81
:10107000F12CD1E067E0362E02EB10E0EAE7F0E079
:101080008491E7EBF0E02490E3EAF0E0C491CC2314
:1010900009F459C081110E94DB00EC2FF0E0EE0F43
:1010A000FF1FE859FF4FA591B4918C91282209F4B4
:1010B0004AC0D093410261E08DE00E94040180911A
:1010C0004502811144C0609143027091440243E0A3
:1010D000769567954A95E1F780914202811135C076
:1010E00080913A010E94380480914202882341F0A5
:1010F00060E080E00E94050485E691E00E94C8035C
:101100006AEF70E080E090E00E94830180914202EB
:101110008D278093420280914102882361F00E94D2
:101120001205D0933A01D0934502109241021092D9
:10113000440210924302E0E0F0E0EF2B09F49ECF6E
:101140000E94000096CF60E0B7CF80E0CBCFC09187
:10115000400265E0C13009F060E286E492E00E945E
:101160008C0365E0C23009F060E287E592E00E94FE
:101170008C0380913901815080933901811119C00C
:10118000C11164C00E94560AA30192010E94AE0AD6
:10119000672B682B692B09F057C082E080934002CF
:1011A0000E94560AA50194010E94AE0A6E5F6093E8
:1011B000390180914102882349F080913A018330BE
:1011C00018F483E080933A01109241026091430247
:1011D0007091440233E0769567953A95E1F78091F6
:1011E0003A010E943804882309F4E9C010924502AC
:1011F00083E00E94320180913801833089F5E6E86E
:10120000F0E0C491C7FDCCC083E00E948D00CC23E8
:1012100009F497C0C23009F0A8C08091B100887F5E
:1012200086608093B1008BE98093B300C092340252
:10123000D0923502E0923602F0923702809170002F
:10124000826080937000ACC081E0A8CF1092400211
:101250000E94560AA50194010E94AE0A665FA7CFBC
:101260008F3F09F09DC083E080933801E6E8F0E00D
:10127000C491CF3F09F494C0C13019F148F0C23095
:1012800009F43DC0C7FD8CC083E00E948D00C2CF31
:1012900014BC15BC84B5826084BD85B5816085BDF4
:1012A000EEE9F0E08491E82FF0E0EE0FFF1FE95740
:1012B000FF4F85919491F801849180933302C0E0AF
:1012C000A3CF1092800010928100809181008860ED
:1012D0008093810080918100816080938100EEE99C
:1012E000F0E08491E82FF0E0EE0FFF1FE957FF4F89
:1012F00085919491F80184918093320285CF109268
:10130000B0001092B1008091B00082608093B00074
:101310008091B10081608093B100EEE9F0E08491AA
:10132000E82FF0E0EE0FFF1FE957FF4F85919491F2
:101330009093310280933002F801849180932F02C0
:1013400063CF85B5887F846085BD8BE987BDC092FA
:101350003C02D0923D02E0923E02F0923F02809128
:101360006E00826080936E001BC0C13001F58091D9
:101370008100887F8160809381008FE39CE9909356
:10138000890080938800C0923802D0923902E0929E
:101390003A02F0923B0280916F00826080936F006E
:1013A00064E670E080E090E00E948301C4CEC23029
:1013B00021F0C111F5CF8FE3C9CF8FE335CF8091F5
:1013C0003A01982F977F923061F4D0933A0180913F
:1013D0004302909144020196909344028093430209
:1013E000DFCF9BEF980F933040F4909147029032FB
:1013F00079F08BE080933A01EACF8B3048F09091FE
:101400004702903219F430923A01E1CF8C3089F3DF
:101410008F5FF0CF8F929F92AF92BF92CF92DF9269
:10142000EF92FF92CF93DF93EC01688179818A81FB
:101430009B81611571058105910521F464E279EDC7
:101440008BE597E02DE133EF41E050E00E94AE0ADA
:1014500049015A019B01AC01A7EAB1E40E94CD0AFF
:101460006B017C01ACEEB4EFA50194010E94DB0A94
:10147000C60ED71EE81EF91EF7FE06C081E0C81A88
:10148000D108E10880E8F80AC882D982EA82FB82A2
:10149000C701B6019F77DF91CF91FF90EF90DF906A
:1014A000CF90BF90AF909F908F9008958F929F9212
:1014B000AF92BF92CF92DF92EF92FF9260913B0189
:1014C00070913C0180913D0190913E016115710543
:1014D0008105910521F464E279ED8BE597E02DE13A
:1014E00033EF41E050E00E94AE0A49015A019B01EE
:1014F000AC01A7EAB1E40E94CD0A6B017C01ACEE1D
:10150000B4EFA50194010E94DB0AC60ED71EE81EA7
:10151000F91EF7FE06C081E0C81AD108E10880E88C
:10152000F80AC0923B01D0923C01E0923D01F0925A
:101530003E01C701B6019F77FF90EF90DF90CF90FB
:10154000BF90AF909F908F90089560933B017093F0
:101550003C0180933D0190933E010895052E97FB39
:101560001EF400940E94C50A57FD07D00E94E00AAD
:1015700007FC03D04EF40C94C50A50954095309565
:1015800021953F4F4F4F5F4F0895909580957095EF
:1015900061957F4F8F4F9F4F08950E94020BA59F2B
:1015A000900DB49F900DA49F800D911D112408955E
:1015B000B7FF0C94CD0A0E94CD0A821B930B0895AD
:1015C000A1E21A2EAA1BBB1BFD010DC0AA1FBB1F47
:1015D000EE1FFF1FA217B307E407F50720F0A21BB9
:1015E000B30BE40BF50B661F771F881F991F1A9426
:1015F00069F760957095809590959B01AC01BD0150
:10160000CF010895A29FB001B39FC001A39F700DA9
:10161000811D1124911DB29F700D811D1124911DFA
:101620000895EE0FFF1F0590F491E02D0994F894B2
:02163000FFCFEA
:101632000C0C000E1C0C1A130C0C000C0C0C0C0ED7
:101642000C0C001E0D1F10001E0D1F1000000000CC
:101652001F1F1F1F1F1F1F1F030303030303030378
:101662001818181818181818FF01010100000000B6
:10167200004000140054000000000072024502897C
:10168200031B023E022B021C02000000000C05AEEE
:0C16920000890388035374617274000027
:00000001FF
