:100000000C945E000C9486000C9486000C94860080
:100010000C9486000C9486000C9486000C9440048A
:100020000C9486000C9486000C9486000C94860038
:100030000C9486000C9486000C9486000C94860028
:100040000C949C040C9486000C9486000C948600FE
:100050000C9486000C9486000C9486000C94860008
:100060000C9486000C948600000000080002010039
:100070000003040700000000000000000200000070
:1000800000250028002B0000000000240027002A83
:100090000004040404040404040202020202020331
:1000A000030303030301020408102040800102043B
:1000B00008102001020408102000080711241FBEA8
:1000C000CFEFD8E0DEBFCDBF11E0A0E0B1E0EAE6BF
:1000D000F0E102C005900D92A235B107D9F721E0F9
:1000E000A2E5B1E001C01D92AC3AB207E1F710E021
:1000F000CEE5D0E004C02197FE010E942D08CD3549
:10010000D107C9F70E94E6040C9433080C94000050
:1001100090E0FC01EB55FF4F24918F569F4FFC015F
:100120008491882399F090E0880F991FFC01E9578A
:10013000FF4FA591B491FC01E358FF4F8591949135
:100140008FB7F894EC91E22BEC938FBF0895AF92A8
:10015000BF92CF92DF92EF92FF920F931F93CF93B4
:10016000DF936C017B018B01040F151FEB015E0116
:10017000AE18BF08C017D10759F06991D601ED91AB
:10018000FC910190F081E02DC6010995892B79F74A
:10019000C501DF91CF911F910F91FF90EF90DF90FC
:1001A000CF90BF90AF90089590E0FC01E859FF4FC9
:1001B0002491FC01EB55FF4F3491FC01EF56FF4FAA
:1001C000E491EE23C9F0222339F0233001F1A8F4A1
:1001D000213019F1223029F1F0E0EE0FFF1FE35832
:1001E000FF4FA591B4918FB7F894EC91611126C09F
:1001F00030953E233C938FBF08952730A9F02830D7
:10020000C9F0243049F7809180008F7D03C0809130
:1002100080008F7780938000DFCF84B58F7784BD97
:10022000DBCF84B58F7DFBCF8091B0008F7780933B
:10023000B000D2CF8091B0008F7DF9CF3E2BDACFC6
:100240009091380189130BC0ECE7F0E0E4919FEF47
:1002500090933801E13049F028F0E23061F060E03D
:100260000C94D40010926E00FACF90916F009D7F95
:1002700090936F00F4CF909170009D7F90937000E9
:1002800091E09093B0009091B100987F946090932A
:10029000B1001092B300E3CF3FB7F89480915701BB
:1002A00090915801A0915901B0915A0126B5A89B8F
:1002B00005C02F3F19F00196A11DB11D3FBFBA2FF8
:1002C000A92F982F8827BC01CD01620F711D811DB8
:1002D000911D42E0660F771F881F991F4A95D1F73D
:1002E00008958F929F92AF92BF92CF92DF92EF923A
:1002F000FF924B015C010E944C016B017C010E944A
:100300004C016C197D098E099F09683E7340810577
:100310009105A8F321E0821A9108A108B10888EE9E
:10032000C80E83E0D81EE11CF11C81149104A104C5
:10033000B10429F7FF90EF90DF90CF90BF90AF907E
:100340009F908F900895089590E080E00895FC01BB
:1003500030E020E040E255E090812F303105B1F0EF
:100360008181963039F14CF49530F1F02F5F3F4F99
:1003700031962031310581F714C09730E9F0903281
:10038000A9F7853079F080E28083F0CF862F963010
:1003900089F01CF4953041F00895973069F090325F
:1003A00081F3089586E0F0CF803211F085E0ECCF44
:1003B00087E0EACF5083DACF4083D8CFFC010190A9
:1003C0000020E9F73197AF01481B590BBC0184E9C4
:1003D00091E00C94A700CF93DF93EC0160E08E8155
:1003E0000E94D40061E08E810E94D40060E08E8182
:1003F0000E94D4008BE891E00197F1F7DF91CF9153
:100400000895CF92DF92EF92FF920F931F93CF93B5
:10041000DF936C017C0187E0E80EF11CD0E0C0E0C6
:10042000062F10E0B8010C2E02C0759567950A944E
:10043000E2F76170F70181917F010E94D40021965B
:10044000C430D10579F7C601DF91CF911F910F918B
:10045000FF90EF90DF90CF900C94EB01CF92DF9262
:10046000EF92FF920F931F93CF93DF93EC01F62E41
:10047000642F8C810E94D4008D818F3F19F060E041
:100480000E94D4000F2D10E08F8584FF25C06E01DF
:1004900087E0C80ED11CF12CE12CB8010E2C02C053
:1004A000759567950A94E2F76170F60181916F0185
:1004B0000E94D400FFEFEF1AFF0A88E0E816F1046B
:1004C00061F7CE01DF91CF911F910F91FF90EF90D7
:1004D000DF90CF900C94EB01B80184E0759567959F
:1004E0008A95E1F7CE010E9401026F2DCE01DF91C6
:1004F000CF911F910F91FF90EF90DF90CF900C94D0
:10050000010240E0682F84E991E00C942E02CF9321
:10051000DF93823029F49091A30198609093A30116
:100520008093A7011092A80180E48093A90180E143
:100530008093AA0180E58093AB01809198010E948D
:100540008800809199018F3F11F00E94880080916E
:100550009A010E948800C4E9D1E09E0124593140EB
:100560008091A30184FD0AC084E090E021962817C1
:1005700039073CF48E810E948800EFCF88E090E03C
:10058000F5CF8BE39DE00197F1F760E08091980152
:100590000E94D40060E080919A010E94D400809172
:1005A00099018F3F19F060E00E94D4008091A3016F
:1005B00084FD39C063E084E991E00E940102CBE44C
:1005C000D6E4CE010197F1F763E084E991E00E945F
:1005D00001022197F1F763E084E991E00E940102B2
:1005E00083E592E00197F1F762E084E991E00E94EF
:1005F00001028091A30180620E94810284E08093C5
:10060000A4018CE00E94810281E00E9481028BE3C0
:100610009FE10197F1F782E08093A50186E0DF91E9
:10062000CF910C94810280620E9481028BE496E457
:100630000197F1F78091A30180620E94810283E516
:1006400092E00197F1F78091A30180620E948102FC
:10065000D0CF9091A701691710F06FEF690FE62FC7
:10066000F0E0EC56FE4F9489890F80680C9481026B
:100670004F925F926F927F92AF92BF92CF92DF9232
:10068000EF92FF920F931F93CF93DF93CDB7DEB717
:10069000A1970FB6F894DEBF0FBECDBF7B01B0901F
:1006A0008401A09073018D3008F0ACC0E82FF0E019
:1006B000E45AFC4F0C942D080A04F803F8030704CD
:1006C000F503F203F203F203F203F50307046903EF
:1006D000040480E291E09093840111E020E2B212E0
:1006E00001C010E0803209F084C004E088EEE81612
:1006F00083E0F80658F403E094E6E916F10430F4D8
:1007000001E0EAE0EE16F10408F002E08EE28093E8
:1007100093018093820190E1C92ED12CC01AD10897
:1007200096012D573E4F6901F9017080808360E08A
:1007300080E00E94290383E891E00E94DE01F60137
:10074000708261E080E00E94290382E791E00E94CC
:10075000DE0160E080E1801B0E942903970150E0E8
:1007600040E019A27E01F1E2EF0EF11C6AE0462E94
:10077000512C612C712CCA01B901A30192010E9474
:10078000FC07605DF70162937F012115310541058A
:10079000510589F7309761F001900020E9F7319712
:1007A000AF014E195F09B70184E991E00E94A700EB
:1007B000B0928401A0927301812FA1960FB6F89494
:1007C000DEBF0FBECDBFDF91CF911F910F91FF9084
:1007D000EF90DF90CF90BF90AF907F906F905F9041
:1007E0004F90089580E293E076CF84E09EE273CF4D
:1007F00010E08093730181E030E2A31201C080E039
:10080000182B73CF90E067CF80E292E064CF10E0C6
:1008100083E0EFCF10E069CF41E00E942E0281E03B
:1008200090E00895EF92FF920F931F93CF9300E013
:1008300011E0C8E08C2F80640E948102780188E07A
:10084000E80EF11CF80161918F0184E991E00E94AA
:100850000C040E151F05B1F7C85FC03459F7E3E863
:10086000F1E0A2E7B1E080E281938D9391E0E3397A
:10087000F907D1F7CF911F910F91FF90EF90089555
:100880001F920F920FB60F9211242F933F934F9305
:100890005F936F937F938F939F93AF93BF93EF93E8
:1008A000FF938091600190916101A0916201B091EC
:1008B0006301892B8A2B8B2BD1F190915B01E09105
:1008C0005C01F0915D0180818927808380916001C6
:1008D00090916101A0916201B0916301181619060F
:1008E0001A061B069CF48091600190916101A09111
:1008F0006201B09163010197A109B1098093600180
:1009000090936101A0936201B0936301FF91EF9115
:10091000BF91AF919F918F917F916F915F914F9117
:100920003F912F910F900FBE0F901F9018958091BF
:1009300038010E942001EACF1F920F920FB60F924A
:1009400011242F933F938F939F93AF93BF938091E5
:10095000530190915401A0915501B09156013091ED
:10096000520123E0230F2D3758F50196A11DB11D2B
:10097000209352018093530190935401A093550109
:10098000B09356018091570190915801A09159015F
:10099000B0915A010196A11DB11D8093570190930A
:1009A0005801A0935901B0935A01BF91AF919F9103
:1009B0008F913F912F910F900FBE0F901F90189520
:1009C00026E8230F0296A11DB11DD2CF789484B5DD
:1009D000826084BD84B5816084BD85B5826085BD3B
:1009E00085B5816085BD80916E00816080936E00C9
:1009F00010928100809181008260809381008091BB
:100A0000810081608093810080918000816080936B
:100A100080008091B10084608093B1008091B0002B
:100A200081608093B00080917A00846080937A0026
:100A300080917A00826080937A0080917A00816050
:100A400080937A0080917A00806880937A00109277
:100A5000C1000E94120482E00E94870283E00E948B
:100A6000880004E910E058EA252E50E0352E6AE0AF
:100A7000862E912CA12CB12C73E0472E512C612C89
:100A8000712CE0E5CE2ED12CE12CF12CD1E020E42C
:100A900020937C0080917A00806480937A0080911A
:100AA0007A0086FDFCCF90917800809179008927AB
:100AB000982789278235934014F4D0936D01809153
:100AC0007101811142C060916F017091700143E02A
:100AD000769567954A95E1F780916E01811133C053
:100AE00080913A010E94380380916E01882341F081
:100AF00060E080E00E9429038BE491E00E94DE0127
:100B00006AEF70E080E090E00E94710180916E01D8
:100B10008D2780936E0180916D01882361F00E9482
:100B20001204D0933A01D093710110926D0110928A
:100B3000700110926F0180E090E0892B09F4A7CF3B
:100B40000E940000A3CF80E0CDCFC0916C0165E092
:100B5000C13009F060E282E791E00E94A70165E000
:100B6000C23009F060E283E891E00E94A701809121
:100B70003901815080933901811119C0C11164C0BC
:100B80000E947207A30192010E94CA07672B682B7B
:100B9000692B09F057C082E080936C010E947207B4
:100BA000A50194010E94CA076E5F6093390180918C
:100BB0006D01882349F080913A01833018F483E075
:100BC00080933A0110926D0160916F0170917001F4
:100BD00033E0769567953A95E1F780913A010E9466
:100BE0003803882309F4E6C01092710183E00E9463
:100BF000200180913801833089F5ECE7F0E0C49161
:100C0000C7FDC9C083E00E948800CC2309F494C0CA
:100C1000C23009F0A5C08091B100887F86608093C2
:100C2000B1008BE98093B300C0926001D092610162
:100C3000E0926201F0926301809170008260809383
:100C40007000A9C081E0A8CF10926C010E947207C9
:100C5000A50194010E94CA07665FA7CF8F3F09F0E4
:100C60009AC083E080933801ECE7F0E0C491CF3F75
:100C700009F491C0C13011F148F0C23009F43BC011
:100C8000C7FD89C083E00E948800C2CF14BC15BC98
:100C900084B5826084BD85B5816085BDF80184918D
:100CA000E82FF0E0EE0FFF1FE358FF4F859194917E
:100CB000F101849180935F01C0E0A4CF1092800085
:100CC00010928100809181008860809381008091E2
:100CD0008100816080938100F8018491E82FF0E029
:100CE000EE0FFF1FE358FF4F85919491F10184911E
:100CF00080935E0187CF1092B0001092B100809176
:100D0000B00082608093B0008091B10081608093D8
:100D1000B100F8018491E82FF0E0EE0FFF1FE358D7
:100D2000FF4F8591949190935D0180935C01F10157
:100D3000849180935B0166CF85B5887F846085BD93
:100D40008BE987BDC0926801D0926901E0926A0187
:100D5000F0926B0180916E00826080936E001BC0E8
:100D6000C13001F580918100887F8160809381008E
:100D70008FE39CE99093890080938800C09264017E
:100D8000D0926501E0926601F092670180916F0058
:100D9000826080936F0064E670E080E090E00E94E3
:100DA0007101C9CEC23021F0C111F5CF8FE3C9CF97
:100DB0008FE338CF80913A01982F977F923061F47A
:100DC000D0933A0180916F019091700101969093B8
:100DD000700180936F01DFCF9BEF980F933040F449
:100DE00090917301903281F09BE090933A01EACFA9
:100DF0008B3050F090917301903221F4E7E0E09352
:100E00003A01E0CF8C3081F38F5F80933A01DACFE3
:100E1000E4E9F1E01382128283E491E0918380831C
:100E20008CE084838FEF85838BE086838AE08783E1
:100E300089E0808788E0818787E08287138614862F
:100E400015861686178681E00C9487028F929F92F2
:100E5000AF92BF92CF92DF92EF92FF92CF93DF9348
:100E6000EC01688179818A819B8161157105810519
:100E7000910521F464E279ED8BE597E02DE133EF04
:100E800041E050E00E94CA0749015A019B01AC01B0
:100E9000A7EAB1E40E94E9076B017C01ACEEB4EF74
:100EA000A50194010E94F707C60ED71EE81EF91E81
:100EB000F7FE06C081E0C81AD108E10880E8F80A08
:100EC000C882D982EA82FB82C701B6019F77DF918F
:100ED000CF91FF90EF90DF90CF90BF90AF909F9019
:100EE0008F9008958F929F92AF92BF92CF92DF9290
:100EF000EF92FF9260913B0170913C0180913D0126
:100F000090913E01611571058105910521F464E21E
:100F100079ED8BE597E02DE133EF41E050E00E9461
:100F2000CA0749015A019B01AC01A7EAB1E40E943A
:100F3000E9076B017C01ACEEB4EFA50194010E94BE
:100F4000F707C60ED71EE81EF91EF7FE06C081E0A1
:100F5000C81AD108E10880E8F80AC0923B01D09293
:100F60003C01E0923D01F0923E01C701B6019F773E
:100F7000FF90EF90DF90CF90BF90AF909F908F90B9
:100F8000089560933B0170933C0180933D019093E1
:100F90003E010895052E97FB1EF400940E94E10780
:100FA00057FD07D00E94FC0707FC03D04EF40C94B9
:100FB000E10750954095309521953F4F4F4F5F4F3A
:100FC000089590958095709561957F4F8F4F9F4FB5
:100FD00008950E941E08A59F900DB49F900DA49F98
:100FE000800D911D11240895B7FF0C94E9070E940C
:100FF000E907821B930B0895A1E21A2EAA1BBB1BC3
:10100000FD010DC0AA1FBB1FEE1FFF1FA217B307D4
:10101000E407F50720F0A21BB30BE40BF50B661FEA
:10102000771F881F991F1A9469F7609570958095AE
:1010300090959B01AC01BD01CF010895A29FB00125
:10104000B39FC001A39F700D811D1124911DB29FFC
:10105000700D811D1124911D0895EE0FFF1F059045
:0A106000F491E02D0994F894FFCFFD
:10106A000C0C000E1C0C1A130C0C000C0C0C0C0EA5
:10107A000C0C001E0D1F10001E0D1F10000000009A
:10108A001F1F1F1F1F1F1F1F030303030303030346
:10109A001818181818181818FF0101010000000084
:1010AA000000000C04A700A401A301537461727428
:0210BA00000034
:00000001FF
